{
  "_format": "hh-sol-artifact-1",
  "contractName": "ModifiedLottery",
  "sourceName": "contracts/Lottery.sol",
  "abi": [
    {
      "inputs": [],
      "stateMutability": "nonpayable",
      "type": "constructor"
    },
    {
      "inputs": [
        {
          "internalType": "address",
          "name": "have",
          "type": "address"
        },
        {
          "internalType": "address",
          "name": "want",
          "type": "address"
        }
      ],
      "name": "OnlyCoordinatorCanFulfill",
      "type": "error"
    },
    {
      "anonymous": false,
      "inputs": [
        {
          "indexed": false,
          "internalType": "string",
          "name": "message",
          "type": "string"
        },
        {
          "indexed": false,
          "internalType": "uint256",
          "name": "number",
          "type": "uint256"
        }
      ],
      "name": "RandomNumberGenerated",
      "type": "event"
    },
    {
      "anonymous": false,
      "inputs": [
        {
          "indexed": false,
          "internalType": "string",
          "name": "message",
          "type": "string"
        },
        {
          "indexed": false,
          "internalType": "uint256",
          "name": "prizeAmount",
          "type": "uint256"
        },
        {
          "indexed": false,
          "internalType": "address payable",
          "name": "winner",
          "type": "address"
        }
      ],
      "name": "RoundCompleted",
      "type": "event"
    },
    {
      "inputs": [],
      "name": "getCollectedFunds",
      "outputs": [
        {
          "internalType": "uint256",
          "name": "",
          "type": "uint256"
        }
      ],
      "stateMutability": "view",
      "type": "function"
    },
    {
      "inputs": [],
      "name": "getLotteryResults",
      "outputs": [],
      "stateMutability": "nonpayable",
      "type": "function"
    },
    {
      "inputs": [],
      "name": "getParticipantsList",
      "outputs": [
        {
          "internalType": "address payable[]",
          "name": "",
          "type": "address[]"
        }
      ],
      "stateMutability": "view",
      "type": "function"
    },
    {
      "inputs": [],
      "name": "lotteryRound",
      "outputs": [
        {
          "internalType": "uint256",
          "name": "",
          "type": "uint256"
        }
      ],
      "stateMutability": "view",
      "type": "function"
    },
    {
      "inputs": [
        {
          "internalType": "uint256",
          "name": "",
          "type": "uint256"
        }
      ],
      "name": "lotteryWinners",
      "outputs": [
        {
          "internalType": "address payable",
          "name": "",
          "type": "address"
        }
      ],
      "stateMutability": "view",
      "type": "function"
    },
    {
      "inputs": [],
      "name": "organizer",
      "outputs": [
        {
          "internalType": "address",
          "name": "",
          "type": "address"
        }
      ],
      "stateMutability": "view",
      "type": "function"
    },
    {
      "inputs": [
        {
          "internalType": "uint256",
          "name": "requestId",
          "type": "uint256"
        },
        {
          "internalType": "uint256[]",
          "name": "randomWords",
          "type": "uint256[]"
        }
      ],
      "name": "rawFulfillRandomWords",
      "outputs": [],
      "stateMutability": "nonpayable",
      "type": "function"
    },
    {
      "inputs": [],
      "name": "setNewOrganizer",
      "outputs": [],
      "stateMutability": "nonpayable",
      "type": "function"
    },
    {
      "stateMutability": "payable",
      "type": "receive"
    }
  ],
  "bytecode": "0x60a060405234801561001057600080fd5b50738103b0a8a00be2ddc778e6e7eaa21791cd3646258073ffffffffffffffffffffffffffffffffffffffff1660808173ffffffffffffffffffffffffffffffffffffffff168152505050336000806101000a81548173ffffffffffffffffffffffffffffffffffffffff021916908373ffffffffffffffffffffffffffffffffffffffff1602179055506000600460006101000a81548160ff021916908360018111156100c1576100c0610128565b5b02179055506001600281905550738103b0a8a00be2ddc778e6e7eaa21791cd364625600460016101000a81548173ffffffffffffffffffffffffffffffffffffffff021916908373ffffffffffffffffffffffffffffffffffffffff160217905550610157565b7f4e487b7100000000000000000000000000000000000000000000000000000000600052602160045260246000fd5b6080516118ba61017960003960008181610439015261048d01526118ba6000f3fe60806040526004361061007f5760003560e01c806386b833c91161004e57806386b833c9146102df578063c5196426146102f6578063d7a1a5b914610321578063ddfbb9d41461035e57610244565b80631fe543e3146102495780634a4b14981461027257806361203265146102895780636d0c40fd146102b457610244565b36610244576000600181111561009857610097610c73565b5b600460009054906101000a900460ff1660018111156100ba576100b9610c73565b5b146100fa576040517f08c379a00000000000000000000000000000000000000000000000000000000081526004016100f190610d25565b60405180910390fd5b60008054906101000a900473ffffffffffffffffffffffffffffffffffffffff1673ffffffffffffffffffffffffffffffffffffffff163373ffffffffffffffffffffffffffffffffffffffff1603610188576040517f08c379a000000000000000000000000000000000000000000000000000000000815260040161017f90610d91565b60405180910390fd5b662386f26fc1000034146101d1576040517f08c379a00000000000000000000000000000000000000000000000000000000081526004016101c890610e23565b60405180910390fd5b6101da33610389565b610242576001339080600181540180825580915050600190039060005260206000200160009091909190916101000a81548173ffffffffffffffffffffffffffffffffffffffff021916908373ffffffffffffffffffffffffffffffffffffffff1602179055505b005b600080fd5b34801561025557600080fd5b50610270600480360381019061026b9190610fe6565b610437565b005b34801561027e57600080fd5b506102876104f7565b005b34801561029557600080fd5b5061029e6105f1565b6040516102ab9190611083565b60405180910390f35b3480156102c057600080fd5b506102c9610615565b6040516102d691906110ad565b60405180910390f35b3480156102eb57600080fd5b506102f461061d565b005b34801561030257600080fd5b5061030b610775565b60405161031891906110ad565b60405180910390f35b34801561032d57600080fd5b50610348600480360381019061034391906110c8565b61077b565b6040516103559190611116565b60405180910390f35b34801561036a57600080fd5b506103736107ae565b60405161038091906111ef565b60405180910390f35b600080600090505b60018054905081101561042c578273ffffffffffffffffffffffffffffffffffffffff16600182815481106103c9576103c8611211565b5b9060005260206000200160009054906101000a900473ffffffffffffffffffffffffffffffffffffffff1673ffffffffffffffffffffffffffffffffffffffff1603610419576001915050610432565b80806104249061126f565b915050610391565b50600090505b919050565b7f000000000000000000000000000000000000000000000000000000000000000073ffffffffffffffffffffffffffffffffffffffff163373ffffffffffffffffffffffffffffffffffffffff16146104e957337f00000000000000000000000000000000000000000000000000000000000000006040517f1cf993f40000000000000000000000000000000000000000000000000000000081526004016104e09291906112b7565b60405180910390fd5b6104f3828261083c565b5050565b60018081111561050a57610509610c73565b5b600460009054906101000a900460ff16600181111561052c5761052b610c73565b5b1461056c576040517f08c379a000000000000000000000000000000000000000000000000000000000815260040161056390611352565b60405180910390fd5b336000806101000a81548173ffffffffffffffffffffffffffffffffffffffff021916908373ffffffffffffffffffffffffffffffffffffffff1602179055506000600460006101000a81548160ff021916908360018111156105d2576105d1610c73565b5b0217905550600260008154809291906105ea9061126f565b9190505550565b60008054906101000a900473ffffffffffffffffffffffffffffffffffffffff1681565b600047905090565b6000600181111561063157610630610c73565b5b600460009054906101000a900460ff16600181111561065357610652610c73565b5b14610693576040517f08c379a000000000000000000000000000000000000000000000000000000000815260040161068a90610d25565b60405180910390fd5b60008054906101000a900473ffffffffffffffffffffffffffffffffffffffff1673ffffffffffffffffffffffffffffffffffffffff163373ffffffffffffffffffffffffffffffffffffffff1614610721576040517f08c379a0000000000000000000000000000000000000000000000000000000008152600401610718906113e4565b60405180910390fd5b6003600180549050101561076a576040517f08c379a000000000000000000000000000000000000000000000000000000000815260040161076190611476565b60405180910390fd5b610772610af8565b50565b60025481565b60036020528060005260406000206000915054906101000a900473ffffffffffffffffffffffffffffffffffffffff1681565b6060600180548060200260200160405190810160405280929190818152602001828054801561083257602002820191906000526020600020905b8160009054906101000a900473ffffffffffffffffffffffffffffffffffffffff1673ffffffffffffffffffffffffffffffffffffffff16815260200190600101908083116107e8575b5050505050905090565b7f89ae5e6810e9d2b37c09c38cc437a6e0e5a7095d879c936e68a9e9b6e58246938160008151811061087157610870611211565b5b602002602001015160405161088691906114e2565b60405180910390a16000600180549050826000815181106108aa576108a9611211565b5b60200260200101516108bc919061153f565b90506000600182815481106108d4576108d3611211565b5b9060005260206000200160009054906101000a900473ffffffffffffffffffffffffffffffffffffffff1690506001828154811061091557610914611211565b5b9060005260206000200160009054906101000a900473ffffffffffffffffffffffffffffffffffffffff1660036000600254815260200190815260200160002060006101000a81548173ffffffffffffffffffffffffffffffffffffffff021916908373ffffffffffffffffffffffffffffffffffffffff16021790555060008060006101000a81548173ffffffffffffffffffffffffffffffffffffffff021916908373ffffffffffffffffffffffffffffffffffffffff160217905550600067ffffffffffffffff8111156109ef576109ee610ea3565b5b604051908082528060200260200182016040528015610a1d5781602001602082028036833780820191505090505b5060019080519060200190610a33929190610bcc565b506001600460006101000a81548160ff02191690836001811115610a5a57610a59610c73565b5b02179055508073ffffffffffffffffffffffffffffffffffffffff166108fc479081150290604051600060405180830381858888f19350505050158015610aa5573d6000803e3d6000fd5b507ff1d3894a73f00c3e4d01f9ad609edccef0e075866b1e25535e4e338bd7a373a0670de0b6b3a764000047610adb9190611570565b82604051610aea929190611639565b60405180910390a150505050565b6000600460019054906101000a900473ffffffffffffffffffffffffffffffffffffffff1673ffffffffffffffffffffffffffffffffffffffff16635d3b1d307f474e34a077df58807dbe9c96d3c009b23b3c6d0cce433e59bbf5b34f823bc56c6120bd6003622625a060016040518663ffffffff1660e01b8152600401610b849594939291906117ef565b6020604051808303816000875af1158015610ba3573d6000803e3d6000fd5b505050506040513d601f19601f82011682018060405250810190610bc79190611857565b905090565b828054828255906000526020600020908101928215610c45579160200282015b82811115610c445782518260006101000a81548173ffffffffffffffffffffffffffffffffffffffff021916908373ffffffffffffffffffffffffffffffffffffffff16021790555091602001919060010190610bec565b5b509050610c529190610c56565b5090565b5b80821115610c6f576000816000905550600101610c57565b5090565b7f4e487b7100000000000000000000000000000000000000000000000000000000600052602160045260246000fd5b600082825260208201905092915050565b7f4c6f7474657279206973206e6f742079657420737461727465642e20506c656160008201527f73652063686f6f736520616e206f7267616e697a65722e000000000000000000602082015250565b6000610d0f603783610ca2565b9150610d1a82610cb3565b604082019050919050565b60006020820190508181036000830152610d3e81610d02565b9050919050565b7f4f7267616e697a65722063616e6e6f7420706172746963697061746500000000600082015250565b6000610d7b601c83610ca2565b9150610d8682610d45565b602082019050919050565b60006020820190508181036000830152610daa81610d6e565b9050919050565b7f4d7573742073656e642065786163746c7920302e303120657468657220746f2060008201527f7061727469636970617465000000000000000000000000000000000000000000602082015250565b6000610e0d602b83610ca2565b9150610e1882610db1565b604082019050919050565b60006020820190508181036000830152610e3c81610e00565b9050919050565b6000604051905090565b600080fd5b600080fd5b6000819050919050565b610e6a81610e57565b8114610e7557600080fd5b50565b600081359050610e8781610e61565b92915050565b600080fd5b6000601f19601f8301169050919050565b7f4e487b7100000000000000000000000000000000000000000000000000000000600052604160045260246000fd5b610edb82610e92565b810181811067ffffffffffffffff82111715610efa57610ef9610ea3565b5b80604052505050565b6000610f0d610e43565b9050610f198282610ed2565b919050565b600067ffffffffffffffff821115610f3957610f38610ea3565b5b602082029050602081019050919050565b600080fd5b6000610f62610f5d84610f1e565b610f03565b90508083825260208201905060208402830185811115610f8557610f84610f4a565b5b835b81811015610fae5780610f9a8882610e78565b845260208401935050602081019050610f87565b5050509392505050565b600082601f830112610fcd57610fcc610e8d565b5b8135610fdd848260208601610f4f565b91505092915050565b60008060408385031215610ffd57610ffc610e4d565b5b600061100b85828601610e78565b925050602083013567ffffffffffffffff81111561102c5761102b610e52565b5b61103885828601610fb8565b9150509250929050565b600073ffffffffffffffffffffffffffffffffffffffff82169050919050565b600061106d82611042565b9050919050565b61107d81611062565b82525050565b60006020820190506110986000830184611074565b92915050565b6110a781610e57565b82525050565b60006020820190506110c2600083018461109e565b92915050565b6000602082840312156110de576110dd610e4d565b5b60006110ec84828501610e78565b91505092915050565b600061110082611042565b9050919050565b611110816110f5565b82525050565b600060208201905061112b6000830184611107565b92915050565b600081519050919050565b600082825260208201905092915050565b6000819050602082019050919050565b611166816110f5565b82525050565b6000611178838361115d565b60208301905092915050565b6000602082019050919050565b600061119c82611131565b6111a6818561113c565b93506111b18361114d565b8060005b838110156111e25781516111c9888261116c565b97506111d483611184565b9250506001810190506111b5565b5085935050505092915050565b600060208201905081810360008301526112098184611191565b905092915050565b7f4e487b7100000000000000000000000000000000000000000000000000000000600052603260045260246000fd5b7f4e487b7100000000000000000000000000000000000000000000000000000000600052601160045260246000fd5b600061127a82610e57565b91507fffffffffffffffffffffffffffffffffffffffffffffffffffffffffffffffff82036112ac576112ab611240565b5b600182019050919050565b60006040820190506112cc6000830185611074565b6112d96020830184611074565b9392505050565b7f43616e6e6f74206368616e6765206f7267616e697a657220696e20746865206d60008201527f6964646c65206f662061206c6f74746572790000000000000000000000000000602082015250565b600061133c603283610ca2565b9150611347826112e0565b604082019050919050565b6000602082019050818103600083015261136b8161132f565b9050919050565b7f4f6e6c7920746865206f7267616e697a65722063616e2067657420746865207260008201527f6573756c74730000000000000000000000000000000000000000000000000000602082015250565b60006113ce602683610ca2565b91506113d982611372565b604082019050919050565b600060208201905081810360008301526113fd816113c1565b9050919050565b7f4c6f7474657279206d7573742068617665206174206c6561737420332070617260008201527f7469636970616e74730000000000000000000000000000000000000000000000602082015250565b6000611460602983610ca2565b915061146b82611404565b604082019050919050565b6000602082019050818103600083015261148f81611453565b9050919050565b7f52656365697665642061207472756c792072616e646f6d206e756d6265720000600082015250565b60006114cc601e83610ca2565b91506114d782611496565b602082019050919050565b600060408201905081810360008301526114fb816114bf565b905061150a602083018461109e565b92915050565b7f4e487b7100000000000000000000000000000000000000000000000000000000600052601260045260246000fd5b600061154a82610e57565b915061155583610e57565b92508261156557611564611510565b5b828206905092915050565b600061157b82610e57565b915061158683610e57565b92508261159657611595611510565b5b828204905092915050565b7f41206c6f747465727920726f756e642068617320656e6465642e20486572652060008201527f617265207468652077696e6e696e6720616d6f756e742028696e20657468657260208201527f2920616e64207468652077696e6e65723a200000000000000000000000000000604082015250565b6000611623605283610ca2565b915061162e826115a1565b606082019050919050565b6000606082019050818103600083015261165281611616565b9050611661602083018561109e565b61166e6040830184611107565b9392505050565b6000819050919050565b6000819050919050565b60008160001b9050919050565b60006116b16116ac6116a784611675565b611689565b61167f565b9050919050565b6116c181611696565b82525050565b6000819050919050565b600067ffffffffffffffff82169050919050565b6000819050919050565b600061170a611705611700846116c7565b6116e5565b6116d1565b9050919050565b61171a816116ef565b82525050565b6000819050919050565b600061ffff82169050919050565b600061175361174e61174984611720565b6116e5565b61172a565b9050919050565b61176381611738565b82525050565b6000819050919050565b600063ffffffff82169050919050565b600061179e61179961179484611769565b6116e5565b611773565b9050919050565b6117ae81611783565b82525050565b6000819050919050565b60006117d96117d46117cf846117b4565b6116e5565b611773565b9050919050565b6117e9816117be565b82525050565b600060a08201905061180460008301886116b8565b6118116020830187611711565b61181e604083018661175a565b61182b60608301856117a5565b61183860808301846117e0565b9695505050505050565b60008151905061185181610e61565b92915050565b60006020828403121561186d5761186c610e4d565b5b600061187b84828501611842565b9150509291505056fea2646970667358221220c68e2554fc115d81ebea491c224512414a1fb609dd5d3cf55391fa1ecdae393d64736f6c63430008140033",
  "linkReferences": {},
  "deployedLinkReferences": {}
}